:020000040800F2
:10000000D0170020A10D0008A9020008AB020008CB
:10001000AF020008B3020008B702000800000000A9
:10002000000000000000000000000000BB0200080B
:10003000BD02000800000000BF020008C102000865
:10004000BB0D0008BB0D0008BB0D0008BB0D000870
:10005000BB0D0008BB0D0008BB0D0008BB0D000860
:10006000BB0D0008BB0D0008BB0D0008BB0D000850
:10007000BB0D0008BB0D00083D0B0008BB0D0008C0
:10008000BB0D0008BB0D0008BB0D0008BB0D000830
:10009000BB0D0008BB0D0008BB0D0008BB0D000820
:1000A000BB0D0008BB0D0008BB0D0008BB0D000810
:1000B000BB0D0008BB0D0008BB0D0008BB0D000800
:1000C000BB0D0008BB0D0008BB0D0008BB0D0008F0
:1000D000BB0D0008170D0008BB0D0008BB0D000884
:1000E000BB0D0008BB0D0008BB0D0008BB0D0008D0
:1000F000BB0D0008BB0D0008BB0D0008BB0D0008C0
:10010000BB0D0008BB0D0008BB0D0008BB0D0008AF
:10011000BB0D0008BB0D0008BB0D0008BB0D00089F
:10012000BB0D0008BB0D0008BB0D0008BB0D00088F
:1001300000F002F800F03FF80AA090E8000C8244BA
:100140008344AAF10107DA4501D100F034F8AFF297
:10015000090EBAE80F0013F0010F18BFFB1A43F0A5
:10016000010318475820000078200000103A24BFEF
:1001700078C878C1FAD8520724BF30C830C144BF0C
:1001800004680C607047000000230024002500264E
:10019000103A28BF78C1FBD8520728BF30C148BFEA
:1001A0000B607047782901F0FF86002070471FB56B
:1001B0001FBD10B510BD01F0AFFF1146FFF7F7FFEF
:1001C00000F008F801F0CDFF03B4FFF7F2FF03BC25
:1001D00000F046FD0027002500F0D8FC4FF4A06099
:1001E00000F0FEFD4FF4E13000F049FD00F01EFC90
:1001F00000F058F900F07CF900F085FA0BE04FF4BC
:10020000FA7000F000FD2448006808B9012000E001
:10021000002021490860214840782049097800EBF6
:1002200001204EF617718842E9D14FF00066002593
:1002300004E0002019494855681CC5B20A2DF8DBB6
:1002400002220021902000F047FC23E0002000F073
:1002500069F90446022C05D1A6F164011522104863
:1002600000F04CFB012C05D1A6F1640115220320FE
:1002700000F032FC781C87B20A2000F0C4FC142F76
:1002800008D10848006808B9012000E000200549AD
:1002900008600027DAE700009401234240000020B4
:1002A0007C21000894812142704700BFFEE700BF17
:1002B000FEE700BFFEE700BFFEE7704770477047EC
:1002C000704700000CB50020019000906C48006859
:1002D00040F480306A49086000BF6948006800F453
:1002E000003000900198401C0190009818B90198C6
:1002F000B0F5A06FF1D16248006800F4003010B191
:100300000120009001E0002000900098012843D1D6
:100310005C48006840F010005A49086008460068D0
:1003200020F0030008600846006840F00200086002
:10033000534840685249486008464068486008464B
:10034000406840F4806048600846406820F47C10B3
:1003500048600846406840F4E81048600846006875
:1003600040F08070086000BF4548006800F00070F1
:100370000028F9D04248406820F003004049486016
:100380000846406840F00200486000BF3C484068B2
:1003900000F00C000828F9D10CBD10B5FFF792FF52
:1003A00010BD10B53648006840F0010034490860BF
:1003B00008464068344908403149486008460068AA
:1003C000324908402E4908600846006820F4802021
:1003D00008600846406820F4FE0048604FF41F00A3
:1003E0008860FFF7DAFF4FF000602949086010BD10
:1003F00010B5002100200022214B5B6803F00C01A6
:1004000021B1042906D0082928D107E0214B224C2C
:10041000236027E01F4B204C236023E0184B5B68D0
:1004200003F47010164B5B6803F48032022303EB75
:10043000904022B9194B4343174C23600DE0104BF9
:100440005B6803F4003323B1144B4343124C236025
:1004500003E0104B4343104C236003E00D4B0E4C64
:10046000236000BF00BF064B5B68C3F303130C4C53
:10047000E15C094B1B68CB40074C236010BD0000BA
:1004800000100240002002400000FFF8FFFFF6FECF
:1004900008ED00E000127A000000002000093D0095
:1004A0000400002008B50121482001F023F8202095
:1004B000ADF8000010208DF8030003208DF8020035
:1004C0006946094800F05AFD2021074800F003FE64
:1004D0002020ADF800006946044800F04FFD2021BF
:1004E000024800F0F8FD08BD000C01400018014072
:1004F00008B50121442000F0FDFF1820ADF80000F0
:1005000048208DF8030069462C4800F037FD012093
:10051000ADF8000028208DF803006946284800F057
:100520002DFD08BD10B5044614B101202549087001
:100530002448007858B31021204800F0B2FD50B193
:1005400008211E4800F0ADFD28B101211C4800F033
:10055000A8FD01281BD10A2000F055FB00201949F5
:1005600008701021154800F09CFD08B9012010BD4D
:100570000821124800F095FD08B90220F7E7012193
:100580000F4800F08EFD012815D10320EFE7102160
:100590000A4800F086FD01280DD10821074800F027
:1005A00080FD012807D10121054800F07AFD10B92E
:1005B0000120044908700020D9E70000001801401C
:1005C000000801401400002000B587B00121082078
:1005D00000F090FF0121880300F099FF4FF4604084
:1005E000ADF8180018208DF81B0003208DF81A00B4
:1005F00006A93E4800F0C2FC4FF460413B4800F0C1
:100600006AFD0020ADF804004FF48270ADF80600DA
:100610000020ADF808000220ADF80A000120ADF876
:100620000C004002ADF80E003820ADF8100000209C
:10063000ADF812000720ADF8140001A92C4801F014
:10064000E7F901212A4801F088FA07B000BD10B58A
:100650000446274800884FF6C7710840244908809F
:1006600008460088204308800121214801F075FADE
:1006700010BD70B50546002405E0601CC4B2C82C4E
:1006800001DD002070BD0221194801F0EAFA0028BE
:10069000F3D02946164801F091FA002405E0601CC9
:1006A000C4B2C82C01DD0020ECE70121104801F0A4
:1006B000D8FA0028F3D00E4801F082FAC0B2E1E780
:1006C00070B50446002504E0681CC5B2C82D00DDE5
:1006D00070BD0221064801F0C4FA0028F4D021467A
:1006E000034801F06BFA002500BFF1E7000C014060
:1006F0000038004010B5002402220021902000F0B4
:10070000EBF9204610BD08B50121082000F0F2FEEB
:100710004FF48050ADF8000010208DF80300032046
:100720008DF802006946BA4800F028FC4FF4805169
:10073000B74800F0D0FC0120B6490860FFF744FF3D
:100740000020FFF784FFFFF7D5FFB349088008BDFD
:1007500010B500240020AF4908600520FFF789FF8D
:10076000FF20FFF786FF04460120AC49C1F8B00125
:10077000204610BD10B504460020A649086001209F
:10078000FFF777FF2046FFF774FF0120A349C1F868
:10079000B00110BD10B500209E4908600620FFF78B
:1007A00068FF01209D49C1F8B00110BD10B50020BF
:1007B000984908600420FFF75CFF01209749C1F8C1
:1007C000B00110BD2DE9F04106460C461746002049
:1007D000904908600320FFF74CFFC4F30740FFF780
:1007E00048FFC4F30720FFF744FFE0B2FFF741FFE3
:1007F000002505E05520FFF73CFF7055681C85B2C9
:10080000BD42F7DB012083490860BDE8F08110B5E7
:1008100000BFFFF79DFF00F001000028F9D110BDD7
:100820002DE9F04106460C461746FFF7B3FF0020BE
:10083000784908600220FFF71CFFC4F30740FFF768
:1008400018FFC4F30720FFF714FFE0B2FFF711FF12
:10085000002504E0705DFFF70CFF681C85B2BD4207
:10086000F8DB01206B490860FFF7D1FFBDE8F0819C
:100870002DE9F04107460E461446F0B2C0F58075EA
:10088000AC4200DC254612E02A4631463846FFF7E6
:10089000C7FFAC4200D10BE02F442E44601B84B252
:1008A000B4F5807F02DD4FF4807500E02546EBE76C
:1008B00000BFBDE8F08110B50446214658A001F004
:1008C00033FB2403FFF766FFFFF7A1FF0020514928
:1008D00008602020FFF7CDFEC4F30740FFF7C9FEF4
:1008E000C4F30720FFF7C5FEE0B2FFF7C2FE012008
:1008F0004A49C1F8B001FFF78AFF10BD2DE9F05F4A
:1009000081460F461646DFF820B14FEA1738C7F385
:100910000B0ACAF58054A64200DC344644E04FEA94
:1009200008314FF480525846FFF74CFF002508E08D
:100930000AEB05001BF80000FF2800D003E0681C4C
:1009400085B2A542F4DB00BFA54216DA4046FFF7A8
:10095000B2FF002507E019F8050005EB0A010BF8C6
:100960000100681C85B2A542F5DB4FEA08314FF45F
:1009700080525846FFF77CFF04E02246394648463D
:10098000FFF776FFA64200D10FE008F101084FF013
:10099000000AA1442744301B86B2B6F5805F02DD11
:1009A0004FF4805400E03446B9E700BFBDE8F09F43
:1009B00010B5FFF7EFFEFFF72AFF0020154908608A
:1009C000C720FFF756FE01201449C1F8B001FFF718
:1009D0001EFF10BD10B500200E490860B920FFF7BA
:1009E00048FE01200D49C1F8B001032000F0E7F8EE
:1009F00010BD10B5002007490860AB20FFF739FE95
:100A000001200649C1F8B001032000F0D8F810BD5C
:100A1000000C0140B08121421600002000802142DC
:100A200066653A25780D0A00A400002000B58BB059
:100A30000121084600F051FD4E4801F049F94E48A9
:100A400000904E4801900020029064200390002006
:100A500004908020059000200690079008904FF4A5
:100A60004050099000200A906946424801F0D2F9AE
:100A70004048143001F02CF93F4800904048019064
:100A80001020029000010390002004908020059027
:100A900000200690079008904FF4805009900020A5
:100AA0000A9069463348143001F0B4F9012202215A
:100AB000304801F0E6F94FF4E06000F091F90E20C3
:100AC000304908700020487001208870C8700846BE
:100AD00000F08BF90BB000BD70B506460C4615460C
:100AE0000021244801F0C1F92248443885640020DF
:100AF000254908603046FFF7E3FDC4F30740FFF7E0
:100B0000DFFDC4F30720FFF7DBFDE0B2FFF7B1FD27
:100B10000122022118480C3801F047F80122114641
:100B200015480C3801F041F80121124801F09DF9F7
:100B300001211048143001F098F970BD10B54FF440
:100B4000005001F0ADF9012812D10F4908600021D1
:100B5000084801F08AF94FF4005001F0D4F900215F
:100B60000448143001F081F94FF4003001F0CBF962
:100B700010BD0000440002400C380040400000203E
:100B80001E00002018000020B081214210B56FF037
:100B9000040000F074F92E4800682E49B0FBF1F013
:100BA0002D4908700846007800EB4001C1EBC010E9
:100BB0004FF6FF7101EAC0002849088010BD0146C8
:100BC000254A12784A434FF0E0235A6100229A6185
:100BD0001A46126942F001021A6100BF4FF0E0228A
:100BE000106900F001021AB100F48032002AF5D039
:100BF0004FF0E022126922F001024FF0E0231A6167
:100C000000229A6170470146144A12884A434FF005
:100C1000E0235A6100229A611A46126942F00102E9
:100C20001A6100BF4FF0E022106900F001021AB112
:100C300000F48032002AF5D04FF0E022126922F051
:100C400001024FF0E0231A6100229A617047000010
:100C50000000002000127A00200000202200002066
:100C6000014600BF704700BF494A128802F04002A7
:100C7000002AF9D0C2B2464B1B1D1A80704710B52E
:100C800086B00446012144F2040000F033FC4FF426
:100C90000070ADF8140003208DF8160018208DF8B0
:100CA000170005A93B4800F069F94FF48060ADF8E2
:100CB000140004208DF8170005A9364800F05EF9ED
:100CC00025208DF8000003208DF801008DF802002A
:100CD00001208DF80300684600F087F80194002099
:100CE000ADF80800ADF80A00ADF80C00ADF8100042
:100CF0000C20ADF80E0001A9254800F0A2FC01224D
:100D000040F22551224800F034FD0121204800F036
:100D100024FD06B010BD10B540F225511C4800F06E
:100D20000DFE10B31A4800F089FDC4B21A480088BD
:100D300000F40040C8B91848008800F4804060B151
:100D40000A2C03D000201449088020E012480088B3
:100D500040F400401049088019E00D2C06D10E48DF
:100D6000008840F480400C49088010E00A48008860
:100D7000C0F30D0009490C5407480088401C06497F
:100D8000088008460088C72801DD0020088010BDC3
:100D9000003801400008014028000020A410002075
:100DA0000948804709480047FEE7FEE7FEE7FEE7FF
:100DB000FEE7FEE7FEE7FEE7FEE7FEE7044805493B
:100DC000054A064B70470000A303000831010008E4
:100DD000D0110020D0170020D0130020D013002005
:100DE00031490143314A1160704770B50021002339
:100DF0000F22C47804B32D4C246804F4E064C4F5D5
:100E0000E064210AC1F10403CA40447804FA03F102
:100E10008478144021430901254C0678A1550478B3
:100E200004F01F050124AC4005786D11AD0005F1FB
:100E3000E025C5F8004109E0047804F01F0501240D
:100E4000AC401C4D0678761145F8264070BD1A4A14
:100E50000A400243154B1B1F1A60704739B1134AF1
:100E6000121D12680243114B1B1D1A6006E00F4A47
:100E7000121D126882430D4B1B1D1A607047042817
:100E800008D14FF0E021096941F004014FF0E02260
:100E9000116107E04FF0E021096921F004014FF0F2
:100EA000E0221161704700000000FA050CED00E03F
:100EB00000E400E080E100E080FFFF1F10B5044681
:100EC000CC48844208D10121042000F02DFB0021F0
:100ED000042000F029FB46E0C748844208D10121E4
:100EE000082000F021FB0021082000F01DFB3AE063
:100EF000C248844208D10121102000F015FB0021D6
:100F0000102000F011FB2EE0BD48844208D10121E1
:100F1000202000F009FB0021202000F005FB22E04A
:100F2000B848844208D10121402000F0FDFA002198
:100F3000402000F0F9FA16E0B348844208D10121BC
:100F4000802000F0F1FA0021802000F0EDFA0AE0A4
:100F5000AE48844207D10121801500F0E5FA002156
:100F6000A01500F0E1FA10BD10B50121084600F00F
:100F7000DBFA0021012000F0D7FA10BD2DE9F04185
:100F8000024600250026002000230024002791F8B7
:100F900003C00CF00F0591F803C00CF0100CBCF16D
:100FA000000F03D091F802C04CEA050591F800C08B
:100FB000BCF1000F31D0146800202BE04FF0010C81
:100FC0000CFA00F3B1F800C00CEA03069E4220D1EF
:100FD00083004FF00F0C0CFA03F7BC4305FA03FC37
:100FE0004CEA040491F803C0BCF1280F06D14FF07D
:100FF000010C0CFA00FCC2F814C00AE091F803C01E
:10100000BCF1480F05D14FF0010C0CFA00FCC2F8FE
:1010100010C0401C0828D1D31460B1F800C0BCF146
:10102000FF0F34DD546800202EE000F1080C4FF073
:10103000010808FA0CF3B1F800C00CEA03069E425E
:1010400021D183004FF00F0C0CFA03F7BC4305FAD3
:1010500003FC4CEA040491F803C0BCF1280F05D14D
:1010600000F1080C08FA0CF8C2F8148091F803C0DB
:10107000BCF1480F07D100F1080C4FF0010808FA45
:101080000CF8C2F81080401C0828CED35460BDE88C
:10109000F0814FF6FF710180022181700421C1703F
:1010A00070470246002093680B400BB1012000E01E
:1010B000002070470146886880B2704702460020D1
:1010C000D3680B400BB1012000E0002070470146BF
:1010D000C86880B2704701617047416170470AB1CA
:1010E000016100E041617047C16070474FF4803298
:1010F0000A43826181618261826982697047024626
:101100000020434B18684FF68073184040EA0210E5
:1011100008433F4B186070473E49C8617047F0B5BF
:101120000A46002300240021002500F00046B6F105
:10113000004F02D1364EF16901E0354E7168C0F3BF
:10114000034583B200F44016B6F5401F08D121F0E4
:1011500070612F4E766826F070662D4F7E6012E02B
:1011600000F48016B6F5801F06D1032606FA05F4B2
:10117000A14341F0706106E0460D360103FA06F620
:10118000B14341F0706122B1460D360103FA06F613
:10119000314300F00046B6F1004F02D11C4EF16120
:1011A00001E01B4E7160F0BD30B500228B071C0FB3
:1011B0000F2303FA04F2164B08338C1053F8243033
:1011C0009343134C08348D1044F8253023468C107B
:1011D00053F824308C07240F00FA04F423430C4CFA
:1011E00008348D1044F8253030BD0A49DC310860E0
:1011F0007047000000080140000C01400010014051
:101200000014014000180140001C01400020014072
:101210000000014000002042DF48006840F001006B
:10122000DD49086008464068DC490840DA49486002
:1012300008460068DA490840D7490860084600684F
:1012400020F4802008600846406820F4FE004860D2
:101250004FF41F0088607047CF49096821F480313E
:10126000CD4A11601146096821F480211160B0F562
:10127000803F03D0B0F5802F0ED106E0C649096843
:1012800041F48031C44A116007E0C349096841F460
:10129000A021C14A116000E000BF00BF704710B537
:1012A00001460022002300204A11012A02D1BA4C33
:1012B000236806E0022A02D1B74C236A01E0B64C4B
:1012C000636A01F01F02012494401C400CB101200C
:1012D00000E0002010BD38B500200090002400255B
:1012E00000BF3120FFF7DBFF05460098401C00904F
:1012F0000098B0F5A06F01D0002DF2D03120FFF79B
:10130000CEFF08B1012400E00024204638BD01468C
:101310000020A14A106820F0F80040EAC1001060E7
:101320007047A04908607047024600209A4B5868F1
:1013300020F47C1042EA01031843974B5860704731
:1013400098490866704701460020934A506820F08B
:1013500003000843506070478F48406800F00C005D
:101360007047014600208C4A506820F0F000084386
:101370005060704701460020874A506820F4E060C2
:1013800008435060704701460020834A506820F4AB
:10139000605040EAC1005060704729B17E4A527ADD
:1013A00002437D4B5A7204E07B4A527A82437A4B65
:1013B0005A7270477B49D831086070470146002057
:1013C000754A506820F4404008435060704700213F
:1013D000714A20321170704A82F82010012802D020
:1013E00004280AD104E001216B4A2032117005E083
:1013F0000521694A2032117000E000BF00BF70472C
:101400006949086070476449096A0143624A116288
:101410007047654944390860704730B500210022A3
:10142000002400235C4D6D6805F00C0121B10429F6
:1014300005D0082923D105E05C4D056022E05B4D15
:1014400005601FE0544D6D6805F47012524D6D68D3
:1014500005F48034022505EB92421CB9544D5543E6
:1014600005600BE04C4D6D6805F400351DB1504D25
:101470005543056002E04D4D5543056002E04B4D7C
:10148000056000BF00BF444D6D6805F0F00109091B
:10149000484D6B5C0568DD4045603F4D6D6805F467
:1014A000E061090A434D6B5C4568DD4085603A4D5B
:1014B0006D6805F46051C90A3E4D6B5C4568DD40BE
:1014C000C560354D6D6805F44041890B3A4D6B5C44
:1014D000C568B5FBF3F5056130BD29B12E4A5269E7
:1014E00002432D4B5A6104E02B4A526982432A4B36
:1014F0005A61704729B1284A92690243264B9A6182
:1015000004E0254A92698243234B9A61704729B1CE
:10151000214AD2690243204BDA6104E01E4AD269B3
:1015200082431D4BDA61704729B11B4AD2680243DE
:10153000194BDA6004E0184AD2688243164BDA602D
:10154000704729B1144A12690243134B1A6104E02F
:10155000114A12698243104B1A617047124940398F
:10156000086070470F49C86470470B49C8717047DD
:101570000948406A40F08070074948627047014658
:101580000020054A92680A400AB1012000E00020CC
:101590007047014988727047001002400000FFF850
:1015A000FFFFF6FE000042428004424200127A0031
:1015B00000093D002A0000203A00002010B5044632
:1015C000FB48844209D101218803FFF7ADFF0021C8
:1015D0004FF48040FFF7A8FF32E0F648844209D17B
:1015E00001214804FFF7ADFF00214FF40030FFF761
:1015F000A8FF25E0F048844209D101218804FFF7C3
:10160000A0FF00214FF48020FFF79BFF18E0EB487C
:10161000844209D10121C804FFF793FF00214FF450
:101620000020FFF78EFF0BE0E548844208D101213E
:101630000805FFF786FF00214FF48010FFF781FFB8
:1016400010BD2DE9F04786B005460E460024A2469F
:1016500000BFA1460027B08900B100BF2F462C8AE9
:101660004CF6FF700440F08804432C82AC894EF69F
:10167000F3100440B088318908437189084304435A
:10168000AC81AC8A4FF6FF400440B0890443AC8281
:1016900001A8FFF7C2FEC648874202D1DDF810A0BC
:1016A00001E0DDF80CA0A88900F4004040B10AEB8D
:1016B000CA0000EB0A1031684900B0FBF1F807E0FE
:1016C0000AEBCA0000EB0A1031688900B0FBF1F8A0
:1016D0006420B8FBF0F004012009642101FB1089AB
:1016E000A88900F4004040B1322000EBC900B0FBF3
:1016F000F1F000F00700044308E0322000EB09108D
:101700006421B0FBF1F000F00F0004432C8106B01F
:10171000BDE8F0874FF41651016000218180C1803F
:1017200001810C21418100218181704710B5024661
:101730000020108A4FF2FF0318400B884C88234387
:101740008C882343CC8823431843108210BD00218A
:10175000018041808180C180704721B1828942F43B
:101760000052828104E082894DF6FF731A40828123
:101770007047F0B50346002400260025002040F6FF
:101780006A17B94200D100BF1846C1F3421401F0F4
:101790001F06012707FA06F5012C01D10C3004E0E1
:1017A000022C01D1103000E014301AB107682F4329
:1017B000076002E00768AF430760F0BD1AB1838A93
:1017C0000B43838202E0838A8B4383827047028AC1
:1017D0004FF6F0731A400282028A0A43028270476F
:1017E00082894FF2FF731A40828182890A43828183
:1017F000704721B1828942F00202828104E082892D
:101800004FF6FD731A4082817047028A4FF6DF73EC
:101810001A400282028A0A430282704721B1028A78
:1018200042F48042028204E0028A4BF6FF731A40BF
:1018300002827047C1F3080282807047014688889F
:10184000C0F308007047818941F001018181704730
:10185000028BD2B20283028B42EA012202837047DA
:10186000028B02F47F420283028B0A430283704799
:1018700021B1828A42F02002828204E0828A4FF6FD
:10188000DF731A408282704721B1828A42F01002CF
:10189000828204E0828A4FF6EF731A408282704798
:1018A00021B1828A42F00802828204E0828A4FF6E5
:1018B000F7731A408282704721B1828942F4004254
:1018C000828103E08289C2F30E028281704721B1D6
:1018D000828A42F40062828204E0828A4FF2FF73BD
:1018E0001A4082827047828A4FF6FB731A408282C6
:1018F000828A0A438282704721B1828A42F00202C0
:10190000828204E0828A4FF6FD731A408282704719
:1019100002460020B1F5007F00D100BF13880B40C4
:101920000BB1012000E00020704701F40072B2F515
:10193000007F00D100BFCA430280704770B50246E5
:10194000002400230025002040F66A16B14200D191
:1019500000BFC1F3421501F01F03012606FA03F38D
:10196000012D02D19689334006E0022D02D1168A5C
:10197000334001E0968A33400C12012606FA04F443
:101980001688344013B10CB1012000E0002070BD76
:1019900010B50022002340F66A14A14200D100BF16
:1019A0000A1201249440A3B2DC43048010BD00005D
:1019B000003801400044004000480040004C004016
:1019C0000050004010B50446BE48844208D10121B1
:1019D0008014FFF7A9FD0021A014FFF7A5FD16E074
:1019E000B948844208D101210014FFF7AAFD002163
:1019F0002014FFF7A6FD0AE0B448844207D1012174
:101A0000C013FFF79EFD0021E013FFF79AFD10BD04
:101A100010B50022028802F441520B884C882343FF
:101A20008C882343CC8823430C8923434C8923434C
:101A30008C892343CC8923431A430280838B4FF242
:101A4000FF74234083830B8A038210BD2DE9F04F7E
:101A500085B005460C464FF0000902274FF00008FC
:101A60004FF0010B0026B246A88B4FF24001084010
:101A7000A88302202884B5F81C90A068022801D110
:101A800000BF38E0A08810B94FF0010B01E04FF023
:101A9000020B8D48854200D100E000BF6846FFF789
:101AA000BCFCDDF800A0E088B0F5007F0AD14FEA69
:101AB0001A2000EB80004000A168B0FBF1F0401D4F
:101AC00086B20BE04FEA4B10BAFBF0F000EB80005F
:101AD0004000A168B0FBF1F0401D86B20A20B6FBC1
:101AE000F0F606F00108A6EB0800C0F34F074FF62A
:101AF000FF7000EA0828022F01DBFF2F02DD02271A
:101B00004FF00008E08840EA080038432884A088A5
:101B1000A1890843618808432188084340F4006094
:101B200040EA0909A5F81C9005B0BDE8F08F002136
:101B3000018041808180C180018141818181C18199
:101B40000721018270470021018041808180C1808E
:101B50000221816000218181704721B1028842F019
:101B60004002028004E002884FF6BF731A400280F0
:101B7000704721B1828B42F48062828304E0828BC1
:101B80004FF6FF331A408283704730B5002400239C
:101B90000C110125A540ABB21AB185881D43858083
:101BA00002E085889D43858030BD1AB183880B4350
:101BB000838002E083888B438380704781817047F4
:101BC0000146888970474FF6FF62914204D002882F
:101BD00042F48072028004E002884FF6FF631A40EC
:101BE0000280704721B1828842F00402828004E0C2
:101BF00082884FF6FB731A408280704702884FF24A
:101C0000FF731A40028002880A43028070470188ED
:101C100041F480510180704721B1028842F40052A2
:101C2000028004E002884DF6FF731A40028070477C
:101C300002460020012901D0108B00E0908A7047F5
:101C40000146088A7047B1F5804F04D1028842F4FA
:101C50008042028004E002884BF6FF731A40028043
:101C600070470246002013890B400BB1012000E0B1
:101C700000207047CA4302817047F0B50246002039
:101C800000240023002501F00F070126BE40B4B256
:101C90000B1101269E40B3B2968806EA0305168909
:101CA000264016B10DB1012000E00020F0BD10B5B6
:101CB000002201F00F040123A3409AB2D343038111
:101CC00010BD00000030014000380040003C0040E2
:101CD00001684FF6FE721140016000210160416011
:101CE0008160C1608D49884208D18C4908394968B2
:101CF00041F00F01894A083A51608AE0874914315E
:101D0000884208D185490839496841F0F001834A81
:101D1000083A51607DE081492831884208D17F49E5
:101D20000839496841F470617C4A083A516070E0B2
:101D30007A493C31884208D178490839496841F4E8
:101D40007041764A083A516063E0744950318842E4
:101D500008D172490839496841F470216F4A083A3C
:101D6000516056E06D496431884208D16B490839A9
:101D7000496841F47001694A083A516049E067498D
:101D80007831884208D165490839496841F0706165
:101D9000624A083A51603CE06149884206D1011F1D
:101DA000096841F00F01021F116032E05C491431F3
:101DB000884208D15A49091F096841F0F001584A80
:101DC000121F116025E056492831884208D1544934
:101DD000091F096841F47061514A121F116018E02F
:101DE0004F493C31884208D14D49091F096841F4E7
:101DF00070414B4A121F11600BE049495031884233
:101E000007D14749091F096841F47021444A121F4C
:101E10001160704710B50022026847F6F0739A43CC
:101E20000C6A8B6823430C6923434C6923438C69F8
:101E30002343CC6923434C6A23438C6A23431A43CC
:101E40000260CB6843600B6883604B68C36010BD61
:101E50000021016041608160C16001614161816177
:101E6000C161016241628162704721B1026842F042
:101E70000102026004E002684FF6FE731A4002603D
:101E800070471AB103680B43036002E003688B4399
:101E900003607047416070470146486880B27047F0
:101EA00001460020002201F080531BB11C4B083B6F
:101EB0001A6802E0194B083B1A6802EA01030BB1E9
:101EC000012000E00020704700F0805119B1144952
:101ED000091F086002E0114908394860704701464F
:101EE0000020002201F080531BB10D4B083B1A6803
:101EF00002E00A4B083B1A6802EA01030BB1012019
:101F000000E00020704700F0805119B10449091F1A
:101F1000086002E001490839486070470800024043
:101F200008040240704700000FB4044910B503AA2A
:101F3000029800F0C3F810BC5DF814FB24000020E8
:101F40002DE9F0410E460446002020622046E1685B
:101F5000884730B3252805D0D4E901219047206A6D
:101F6000401CF2E7E168204600278847050018D0AA
:101F7000A5F14100192802D820354FF400673246F8
:101F8000294620462760FEF70DF940B1012804D00C
:101F9000F61D26F007060836D8E7361DD6E7284690
:101FA000DAE7206ABDE8F08170B504460D462146A7
:101FB0001068AFF300802188090502D50F4A7A44E2
:101FC00002E00E4A7A440E32002104F1240305E0B7
:101FD00000F00F060009965D5E54491C0028F7D1F9
:101FE00020780023000704D5702D02D009B1022308
:101FF00011322046BDE8704000F006B8CF01000065
:1020000070477047704770472DE9F0470D46994675
:102010009246044600F124080168880604D5E06968
:1020200021F01001216000E00120A84201DD471BE2
:1020300000E00027A1697A1902EB0900081AA061E3
:102040002078C00602D42046AFF30080002608E0C6
:10205000D4E901211AF806009047206A401C761C3A
:1020600020624E45F4DB2078C0060AD52046AFF347
:10207000008006E0D4E9012130209047206A401C0E
:102080002062381EA7F10107F4DC07E0D4E9012142
:1020900018F805009047206A401C2062281EA5F110
:1020A0000105F3DC2046AFF300802078000602D55E
:1020B0000220BDE8F0870120FBE70000074B70B568
:1020C0000D467B4400F011F80446284600F020F845
:1020D00010B14FF0FF3070BD204670BDA1EBFFFF87
:1020E00001694A1C02610878704700B58FB0CDE9DC
:1020F00001310021059105497944CDE903101146CC
:102100006846FFF71DFF0FB000BD0000E5FFFFFFB1
:10211000007B00F080007047754600F02BF8AE465B
:1021200005006946534620F00700854618B020B5E3
:10213000FEF744FEBDE820404FF000064FF00007D8
:102140004FF000084FF0000B21F00701AC46ACE85F
:10215000C009ACE8C009ACE8C009ACE8C0098D46CC
:10216000704710B50446AFF300802046BDE810402C
:10217000FEF72AB8004870476C110020454C4954BE
:10218000452053544D333220535049205445535425
:1021900000303132333435363738394142434445E3
:1021A00046403058003031323334353637383961B3
:1021B000626364656640307800000000DC2100083E
:1021C00000000020400000006C0100081C220008F4
:1021D00040000020901700008801000800A24A0477
:1021E00000000000000000000102030406070809C7
:1021F000010017EF00000000000055000000000083
:1022000000000000000000000000010203040102C1
:0C22100003040607080902040608000089
:0400000508000131BD
:00000001FF
